:020000040800F2
:1000000000000220C90100081902000819020008B6
:100010001902000819020008190200080000000077
:1000200000000000000000000000000019020008AD
:1000300019020008000000001902000875080008F5
:100040001902000819020008190200081902000824
:100050001902000819020008190200081902000814
:100060001902000819020008190200081902000804
:1000700019020008190200081902000819020008F4
:1000800019020008190200081902000819020008E4
:1000900019020008190200081902000819020008D4
:1000A00019020008190200081902000819020008C4
:1000B00019020008190200081902000819020008B4
:1000C00019020008190200081902000819020008A4
:1000D0001902000819020008190200081902000894
:1000E0001902000819020008190200081902000884
:1000F0001902000819020008190200081902000874
:100100001902000819020008190200081902000863
:100110001902000819020008190200081902000853
:100120001902000819020008190200081902000843
:100130001902000819020008190200081902000833
:100140001902000819020008190200081902000823
:100150001902000819020008190200081902000813
:100160001902000819020008190200081902000803
:100170001902000819020008190200080000000016
:08018000190200081902000831
:1001880010B5054C237833B9044B13B10448AFF3C9
:1001980000800123237010BD04000020000000002F
:1001A8002016000808B5034B1BB103490348AFF3F9
:1001B800008008BD0000000008000020201600088C
:1001C800DFF834D0002103E00C4B5B584350043176
:1001D8000B480C4B42189A42F6D30B4A02E0002314
:1001E80042F8043B094B9A42F9D300F045FB01F071
:1001F800EFF900F09DFA704700000220C4160008CD
:100208000000002004000020040000207C000020E2
:10021800FEE700002DE9F04F8DB0834B1A6B42F0DA
:1002280010021A631A6B02F010020192019A1A6BFB
:1002380042F004021A631A6B02F004020292029A54
:100248001A6B42F080021A631A6B02F08002039262
:10025800039A1A6B42F001021A631A6B02F0010248
:100268000492049A1A6B42F002021A631A6B02F0A3
:1002780002020592059A1A6B42F008021A631B6B78
:1002880003F008030693069B00220821674800F044
:10029800BDFC00220121664800F0B8FC00224FF2A4
:1002A8001001644800F0B2FC00224FF480716248EB
:1002B80000F0ACFC0825079501260896002409944F
:1002C8000A9407A9594800F0B9FB079608960994BB
:1002D8000A9407A9564800F0B1FB0795022508952E
:1002E80009940A944FF00508CDF82C8007A95048C6
:1002F80000F0A4FB0796514B0893099407A95048AE
:1003080000F09CFB10230793089509940A944FF07A
:10031800060BCDF82CB007A9494800F08FFB4FF029
:10032800200ACDF81CA00895099403270A97CDF850
:100338002C8007A9424800F081FB4FF00409CDF852
:100348001C900894099407A93B4800F077FB4FF4E8
:1003580080630793089509940A94CDF82C8007A91F
:10036800354800F06BFB4FF48043079308950994D8
:100378000A940B9707A9304800F060FB4FF210036E
:100388000793089609940A9407A92A4800F056FB8F
:100398004FF4A4530793089509940A94CDF82CB008
:1003A80007A9234800F04AFB4FF400730793089409
:1003B800099407A9224800F041FB4FF4E053079342
:1003C800089509940A970A230B9307A91C4800F07B
:1003D80035FBCDF81CA00894099407A9154800F02E
:1003E8002DFB4FF4107307931223089309960A976D
:1003F800CDF82C9007A9104800F020FB4FF480732B
:100408000793089609940A9407A90B4800F016FB6D
:1004180007950A4B0893099407A9044800F00EFBB6
:100428000DB0BDE8F08F00BF003802400010024058
:1004380000080240000C02400004024000001110B5
:100448000000024010B582B00E4B1B8802AC24F8A5
:10045800043D00224FF480710B4800F0D7FB642361
:1004680002222146094800F0D5FF002300E00133AD
:10047800312BFCDD01224FF48071034800F0C6FBEC
:1004880002B010BD38160008000402402400002005
:1004980010B582B00E4B9B8802AC24F8043D0022B4
:1004A8004FF480710B4800F0B1FB6423022221460F
:1004B800094800F0AFFF002300E00133312BFCDDD9
:1004C80001224FF48071034800F0A0FB02B010BD78
:1004D80038160008000402402400002010B582B03D
:1004E80009238DF8043000248DF8054022464FF486
:1004F80080710B4800F08AFB6423022201A9094895
:1005080000F088FF224600E00132312AFCDD01229A
:100518004FF48071024800F079FB02B010BD00BFB3
:10052800000402402400002010B582B00E4B1B8945
:1005380002AC24F8043D00224FF480710B4800F00F
:1005480065FB642302222146094800F063FF00236B
:1005580000E00133312BFCDD01224FF480710348A8
:1005680000F054FB02B010BD381600080004024029
:100578002400002008B5FFF7D7FFFFF763FFFFF758
:1005880087FFFFF7ABFF08BD00B583B08DF8040007
:100598008DF8051000224FF480710B4800F036FBEF
:1005A8006423022201A9094800F034FF002300E077
:1005B8000133312BFCDD01224FF48071024800F039
:1005C80025FB03B05DF804FB000402402400002072
:1005D80038B50546002405E0601C295DC0B2FFF768
:1005E800D3FF0134072CF7DD38BD0023072B0ADCC5
:1005F80010B4C25CCC5C2244CA540133072BF8DD2A
:100608005DF8044B7047704700B583B00023009332
:1006180001936846FFF7DCFF03B05DF804FBFEE7D3
:1006280008B51048104B03604FF4827343604FF4D1
:10063800004383600023C360036143614FF4007289
:1006480082612822C2610362436283620A23C36211
:1006580000F09FFE00B908BD4FF4A5710348FFF7ED
:10066800DEFF00BF24000020003800405C160008B0
:1006780000B595B02A4B1A6C42F080521A641B6C74
:1006880003F080530193019B264B1A6842F4804281
:100698001A601B6803F480430293029B02230893A9
:1006A80001220B9210220C920E9300220F92082224
:1006B80010925022119212930723139308A800F066
:1006C800ABFA10BB0F23039302230493B0230593C3
:1006D8004FF4805306930793002103A800F062FCAF
:1006E800C0B900F0CDFD104BA3FB0030800900F02D
:1006F80079F9042000F08CF9002211464FF0FF3000
:1007080000F03CF915B05DF804FB4FF48D71074813
:10071800FFF785FF4FF494710448FFF780FF00BF8F
:100728000038024000700040D34D62105C1600088B
:1007380010B584B000F0DAF8FFF79AFFFFF76AFD0A
:10074800FFF76EFFFFF760FFFFF714FF02AB0E4ADB
:1007580092E8030083E8030000220092ADF8042029
:1007680001248DF8064002228DF8072019466846B4
:10077800FFF73BFF204600F0E1F802A8FFF728FF4B
:100788000A2000F0DBF8F8E74416000800B583B04B
:10079800214B5A6C42F480425A645A6C02F48042EB
:1007A8000092009A1A6C42F080521A641B6C03F093
:1007B80080530193019B072000F0CEF800221146D8
:1007C8006FF00B0000F0DAF8002211466FF00A0013
:1007D80000F0D4F8002211466FF0090000F0CEF8BE
:1007E800002211466FF0040000F0C8F800221146FC
:1007F8006FF0030000F0C2F8002211466FF001000C
:1008080000F0BCF8002211464FF0FF3000F0B6F8B7
:1008180003B05DF804FB00BF003802400268114BCA
:100828009A4200D0704700B587B003F500331A6CC0
:1008380042F480421A641B6C03F480430093009BCB
:100848004FF42043019302230293012303930323CC
:1008580004930523059301A9034800F0EFF807B0B6
:100868005DF804FB003800400004024008B500F0C1
:1008780057F800F0DEF808BD0F49D1F8883043F486
:100888007003C1F888300D4B1A6842F001021A60F3
:10089800002098601A6822F0847222F480321A606C
:1008A800074A5A601A6822F480221A60D8604FF00A
:1008B80000638B60704700BF00ED00E00038024025
:1008C8001030002410B5044600F0DAFC064BA3FBF8
:1008D8000030800900F086F8002221464FF0FF30F2
:1008E80000F04CF8002010BDD34D621008B50B4B3A
:1008F8001A6842F400721A601A6842F480621A6038
:100908001A6842F480721A60032000F025F800206B
:10091800FFF7D8FFFFF73AFF002008BD003C024070
:10092800024A136801331360704700BF200000209B
:10093800014B1868704700BF2000002010B582B036
:100948000190FFF7F5FF0446FFF7F2FF001B019B3C
:100958009842F9D302B010BD074AD36823F4E06384
:100968001B041B0C000200F4E060184340F0BF6059
:1009780040F40030D060704700ED00E030B4174B11
:10098800DB68C3F30223C3F10704042C28BF042443
:100998001D1D062D18D9033B4FF0FF3505FA04F449
:1009A80021EA0401994005FA03F322EA03031943F3
:1009B80000280BDB0901C9B200F1604000F5614075
:1009C80080F8001330BC70470023E5E700F00F0003
:1009D8000901C9B2024B1954F4E700BF00ED00E069
:1009E80014ED00E00138B0F1807F0AD2064B586060
:1009F800064AF02182F823100020986007221A6026
:100A080070470120704700BF10E000E000ED00E0F3
:100A1800042805D0054A136823F0040313607047BF
:100A2800024A136843F004031360704710E000E0C3
:100A3800704708B5FFF7FCFF08BD000000230F2B27
:100A480000F2DB80F0B482B039E0082200E0002236
:100A5800B2403A430234694E46F82420684A146882
:100A6800EA4302EA04064F6817F4803F01D045EADA
:100A78000406634C2660646802EA04064F6817F4AB
:100A8800003F01D045EA04065D4C6660A46802EAAE
:100A980004064F6817F4801F01D045EA0406584C35
:100AA800A660E46822404E6816F4001F01D045EAAB
:100AB8000402534CE26001330F2B00F29B800122A9
:100AC8009A400C6804EA0205AA42F4D14C68022C48
:100AD80001D0122C10D1DE08083650F826C003F0D9
:100AE8000704A7000F24BC402CEA040C0C69BC4086
:100AF80044EA0C0440F8264004685F000326BE4020
:100B0800F64306EA040C4C6804F00304BC4044EACB
:100B18000C0404604C6804F1FF3CBCF1010F03D9DC
:100B2800112C01D0122C10D1846806EA040CCC6870
:100B3800BC4044EA0C048460446824EA02024C681D
:100B4800C4F300149C4014434460C26816408A6889
:100B5800BA403243C2604A6812F0805FABD0294A7B
:100B6800546C44F480445464526C02F48042019200
:100B7800019A9C08A61C214A52F8267003F0030229
:100B880096000F22B24027EA02071F4A90423FF41C
:100B98005EAF02F5806290421ED002F580629042FC
:100BA8001CD002F5806290421AD002F58062904211
:100BB80018D002F58062904216D002F58062904209
:100BC80014D002F58062904212D002F58062904201
:100BD8003FF43BAF09223BE7012239E7022237E71E
:100BE800032235E7042233E7052231E706222FE7FF
:100BF80007222DE702B0F0BC70477047003801406B
:100C0800003C0140003802400000024012B90904CB
:100C1800816170478161704730B583B004460368CD
:100C280013F0010F19D0AC4B9B6803F00C03042B95
:100C38000AD0A94B9B6803F00C03082B32D1A64BB2
:100C48005B6813F4800F2DD0A34B1B6813F4003F8F
:100C580003D06368002B00F09981236813F0020F1A
:100C680072D09D4B9B6813F00C0F55D09A4B9B6824
:100C780003F00C03082B4AD0E368002B00F08B80AC
:100C8800964B01221A60FFF753FE0546924B1B68EC
:100C980013F0020F70D1FFF74BFE401B6428F5D903
:100CA800032076E18E4B00221A70FFF741FE0546BD
:100CB800894B1B6813F4003F06D0FFF739FE401B31
:100CC8006428F5D9032064E12279854B1A7063689A
:100CD80073B1FFF72DFE05467F4B1B6813F4003FE9
:100CE800BBD1FFF725FE401B6428F5D9032050E14E
:100CF800FFF71EFE0546784B1B6813F4003FACD087
:100D0800FFF716FE401B6428F5D9032041E1724B1A
:100D18005B6813F4800FAFD16F4B1B6813F0020FA1
:100D280004D0E368012B01D0012032E16A4803684E
:100D380023F0F8032169F82292FAA2F2B2FA82F2B9
:100D480001FA02F213430360236813F0080F46D038
:100D5800636993B3634B01221A60FFF7E9FD054607
:100D68005D4B5B6F13F0020F39D1FFF7E1FD401BBC
:100D78006428F5D903200CE15748036823F0F803E9
:100D88002169F82292FAA2F2B2FA82F201FA02F288
:100D980013430360D8E7514B00221A60FFF7C8FDE0
:100DA80005464D4B1B6813F0020FCDD0FFF7C0FD71
:100DB800401B6428F5D90320EBE04A4B00221A6057
:100DC800FFF7B6FD0546444B5B6F13F0020F06D0E4
:100DD800FFF7AEFD401B6428F5D90320D9E023684E
:100DE80013F0040F1FD1A369002B00F0D1803A4AF9
:100DF800926802F00C02082A00F0CD80022B79D00C
:100E0800394B00221A60FFF793FD0446324B1B68EA
:100E180013F0007F00F0B880FFF78AFD001B6428FC
:100E2800F4D90320B5E02C4B1A6C42F080521A64B6
:100E38001B6C03F080530193019B2C4A136843F405
:100E480080731360FFF774FD0546284B1B6813F485
:100E5800807F06D1FFF76CFD401B6428F5D903207D
:100E680097E0234B00221A70FFF762FD05461A4BE4
:100E78001B6F13F0020F08D0FFF75AFD401B41F219
:100E880088339842F3D9032083E0227A184B1A70EA
:100E9800A36883B1FFF74CFD05460F4B1B6F13F09A
:100EA800020FA0D1FFF744FD401B41F2883398425E
:100EB800F3D903206DE0FFF73BFD0546064B1B6F9A
:100EC80013F0020F8FD0FFF733FD401B41F2883338
:100ED8009842F3D903205CE0003802400000474202
:100EE80002380240800E47426000474200700040CE
:100EF80070380240294B00221A60FFF719FD054699
:100F0800274B1B6813F0007F06D0FFF711FD401B2D
:100F18006428F5D903203CE0E369226A1343616A37
:100F280047F6C07292FAA2F2B2FA82F201FA02F21B
:100F38001343A26A5208013A4FF4403191FAA1F1E1
:100F4800B1FA81F18A401343E16A4FF0706292FA74
:100F5800A2F2B2FA82F201FA02F21343104A536083
:100F68000E4B01221A60FFF7E3FC04460C4B1B688A
:100F780013F0007F06D1FFF7DBFC001B6428F5D9CE
:100F8800032006E0002004E0002002E0012000E049
:100F9800002003B030BD0120FBE700BF60004742DE
:100FA8000038024070B504460D468E4B1B6803F0AE
:100FB8000F038B427DD2CAB28A4B1A701B6803F0AA
:100FC8000F038B4201D0012070BD036813F0020F9C
:100FD80006D0854A936823F0F00381680B43936039
:100FE800236813F0010F00F0DD806368012B27D020
:100FF8009A1E012A2BD97C4A126812F0020F00F0BF
:10100800ED8079498A6822F0030213438B60FFF769
:101018008FFC05466368012B20D0022B2ED0032BB2
:101028003CD0714B9B6813F00C0F00F0BB80FFF7AE
:101038007FFC401B41F288339842F2D90320C3E772
:10104800694A126812F4003FDBD10120BCE7664A06
:10105800126812F0007FD4D10120B5E7624B9B687B
:1010680003F00C03042B00F09D80FFF761FC401B8C
:1010780041F288339842F1D90320A5E75A4B9B687F
:1010880003F00C03082B00F08D80FFF751FC401B88
:1010980041F288339842F1D9032095E7524B9B6877
:1010A800FFF746FC401B41F288339842F6D90320EB
:1010B8008AE7036813F0020F06D04B4A936823F0BF
:1010C800F00381680B439360236813F0010F5FD02E
:1010D8006368012B25D09A1E012A29D9424A126831
:1010E80012F0020F7CD040498A6822F003021343B1
:1010F8008B60FFF71DFC06466368012B1FD0022B8F
:101108002CD0032B39D0384B9B6813F00C0F3FD0F1
:10111800FFF70EFC801B41F288339842F3D9032075
:1011280052E7314A126812F4003FDCD101204BE744
:101138002D4A126812F0007FD5D1012044E72A4BCE
:101148009B6803F00C03042B22D0FFF7F1FB801BF4
:1011580041F288339842F2D9032035E7224B9B6845
:1011680003F00C03082B13D0FFF7E2FB801B41F2BE
:1011780088339842F2D9032026E71B4B9B68FFF778
:10118800D7FB801B41F288339842F6D903201BE72E
:10119800EAB2144B1A701B6803F00F03AB4201D07C
:1011A800012011E7236813F0040F06D00E4A936854
:1011B80023F4E053E1680B439360236813F0080FAE
:1011C80007D0094A936823F46043216943EAC103BD
:1011D80093600020FFF776FB0020F5E60120F3E698
:1011E8000120F1E6003C024000380240214B9B6898
:1011F80003F00C03042B3AD0082B01D01E4870478B
:101208001C4B586800F03F005B6813F4800F1ED039
:101218001A4AB2FBF0F2174B586847F6C0731840E9
:1012280093FAA3F3B3FA83F3D84000FB02F0114B0F
:101238005B6803F440334FF4403292FAA2F2B2FAF8
:1012480082F2D34001335B00B0FBF3F070470A4AE7
:10125800B2FBF0F2074B586847F6C073184093FA90
:10126800A3F3B3FA83F3D84000FB02F0DFE70348A7
:10127800704700BF003802400024F40000127A00D2
:1012880008B5FFF7B3FF084B9B6803F0F003F022A3
:1012980092FAA2F2B2FA82F2D340044AD35CD8405E
:1012A800034B186008BD00BF003802404C16000808
:1012B800000000202DE9F04105460E4690461C46E8
:1012C800FFF736FB0746B8F1000F2ED02B689B6856
:1012D80036EA03035BD1B4F1FF3FF7D024B1FFF73F
:1012E80027FBC01BA042F1D92A68536823F0E0030A
:1012F80053602A68136823F040031360AB6AB3F5A0
:10130800005F39D0012385F85130002385F850302B
:1013180003202FE02A68136823F4005313602A6817
:10132800136843F4005313601BE02B689B6836EA8C
:1013380003031ED0B4F1FF3FF7D024B1FFF7F8FA4A
:10134800C01BA042F1D92A68536823F0E003536018
:101358002A68136823F040031360AB6AB3F5005F93
:10136800D8D0012385F85130002385F85030032068
:1013780000E00020BDE8F0812A68136823F40053D8
:1013880013602A68136843F400531360BAE7002017
:10139800F0E700283CD010B5044690F85130002BF7
:1013A80031D0022384F851302268136823F04003B7
:1013B80013606368A2681343E26813432269134306
:1013C80062691343A26902F400721343E26913438A
:1013D800226A1343A16A22680B431360638B03F0EC
:1013E8000403616A22680B4353602368E26A1A6146
:1013F8002268D36923F40063D36100206065012368
:1014080084F8513010BD80F85030FFF707FAC8E76C
:101418000120704730B583B090F85140E4B2012CF8
:1014280040F0C780002900F0C880002A00F0C7807B
:1014380090F85040012C00F0C480012480F85040FE
:10144800122480F851400024446501638286C286D4
:10145800C46484648487C487826AB2F5005F34D028
:101468008268B2F5004F3BD00268116811F0400F56
:1014780003D1116841F0400111601D460446C3685C
:10148800002B5DD1436813B1C38E012B08D1236BA8
:101498005A1C226322681B78D360E38E013BE386E3
:1014A800E38E1BB32B46002202212046FFF702FFE2
:1014B800002840F08880236B5A1C226322681B781E
:1014C800D360E38E013BE386EAE701680A6822F409
:1014D80000520A6001680A6842F400520A60BFE7D5
:1014E80001680A6842F480420A60BDE7A36AB3F55E
:1014F800005F1FD02B46002202212046FFF7DAFEAC
:1015080000284AD12B46012280212046FFF7D2FE2F
:101518000346002847D1A2682AB92268D1680191F8
:1015280092680192019A012284F85120002284F8DD
:1015380050203FE02268136843F480531360D9E7D2
:10154800436813B1C38E012B09D1226B236812881B
:10155800DA60236B02332363E38E013BE386E38E79
:101568008BB12B46002202212046FFF7A3FE60BB69
:10157800226B23681288DA60236B02332363E38EBD
:10158800013BE386EBE7A36AB3F5005FB2D12268BB
:10159800136843F480531360ACE7636D43F0200392
:1015A8006365032306E0636D43F02003636503234B
:1015B80000E00223184603B030BD0123FAE70123F7
:1015C800F8E70223F6E70323F4E70323F2E7000032
:1015D80070B50D4E0D4CA41BA4100025A54209D1D1
:1015E8000B4E0C4C00F018F8A41BA4100025A542C3
:1015F80005D170BD56F8253098470135EEE756F805
:10160800253098470135F2E7BC160008BC160008DB
:10161800BC160008C0160008F8B500BFF8BC08BC26
:101628009E467047F8B500BFF8BC08BC9E46704798
:101638000B070000050F00000C0100002424FF2404
:1016480024FF242400000000010203040102030413
:1016580006070809433A2F55736572732F6C6F6438
:1016680065722F446F63756D656E74732F72657044
:101678006F732F546963546163546F65456D626578
:10168800646465642F5454542F545454456D6265F2
:101698006464656453797374656D732F74657374CA
:1016A8005F5350495F312F5372632F6D61696E2EFE
:0416B80063000000CB
:0416BC00AD01000874
:0416C0008901000894
:0416C4000024F4000A
:04000005080001C925
:00000001FF
