:020000040800F2
:1000000000000220C90100081902000819020008B6
:100010001902000819020008190200080000000077
:1000200000000000000000000000000019020008AD
:10003000190200080000000019020008250D000840
:100040001902000819020008190200081902000824
:100050001902000819020008190200081902000814
:100060001902000819020008190200081902000804
:1000700019020008190200081902000819020008F4
:1000800019020008190200081902000819020008E4
:1000900019020008190200081902000819020008D4
:1000A00019020008190200081902000819020008C4
:1000B00019020008190200081902000819020008B4
:1000C00019020008190200081902000819020008A4
:1000D0001902000819020008190200081902000894
:1000E0001902000819020008190200081902000884
:1000F0001902000819020008190200081902000874
:100100001902000819020008190200081902000863
:100110001902000819020008190200081902000853
:100120001902000819020008190200081902000843
:100130001902000819020008190200081902000833
:100140001902000819020008190200081902000823
:100150001902000819020008190200081902000813
:100160001902000819020008190200081902000803
:100170001902000819020008190200080000000016
:08018000190200081902000831
:1001880010B5054C237833B9044B13B10448AFF3C9
:1001980000800123237010BD04000020000000002F
:1001A800601F000808B5034B1BB103490348AFF3B0
:1001B800008008BD0000000008000020601F000843
:1001C800DFF834D0002103E00C4B5B584350043176
:1001D8000B480C4B42189A42F6D30B4A02E0002314
:1001E80042F8043B094B9A42F9D300F09DFD01F017
:1001F8007BFE00F0D7FB7047000002208420000837
:100208000000002004000020040000200C01002051
:10021800FEE700002DE9F04F8DB0864B1A6B42F0D7
:1002280010021A631A6B02F010020192019A1A6BFB
:1002380042F004021A631A6B02F004020292029A54
:100248001A6B42F080021A631A6B02F08002039262
:10025800039A1A6B42F001021A631A6B02F0010248
:100268000492049A1A6B42F002021A631A6B02F0A3
:1002780002020592059A1A6B42F008021A631B6B78
:1002880003F008030693069B002208216A4801F040
:1002980048F900220121694801F043F900224FF290
:1002A8001001674801F03DF900224FF4807165485C
:1002B80001F037F9082707970126089600240994C2
:1002C8000A9407A95C4801F03DF807960896099436
:1002D8000A9407A9594801F035F8079702250895A7
:1002E80009940A944FF00508CDF82C8007A95348C3
:1002F80001F028F80796544B0893099407A9534826
:1003080001F020F807970894099507A94F4801F0CC
:1003180019F810230793089509940A944FF0060BCF
:10032800CDF82CB007A9494801F00CF84FF0200A85
:10033800CDF81CA00895099403270A97CDF82C80BE
:1003480007A9424800F0FEFF4FF00409CDF81C90C1
:100358000894099407A93B4800F0F4FF4FF4806320
:100368000793089509940A94CDF82C8007A9354875
:1003780000F0E8FF4FF480430793089509940A9426
:100388000B9707A92F4800F0DDFF4FF210030793E2
:10039800089609940A9407A9294800F0D3FF4FF456
:1003A800A4530793089509940A94CDF82CB007A98B
:1003B800224800F0C7FF4FF400730793089409948C
:1003C80007A9224800F0BEFF4FF4E05307930895B1
:1003D80009940A970A230B9307A91C4800F0B2FF57
:1003E800CDF81CA00894099407A9154800F0AAFFA5
:1003F8004FF4107307931223089309960A97CDF8C0
:100408002C9007A90F4800F09DFF4FF480730793C5
:10041800089609940A9407A90A4800F093FF0795DB
:10042800094B0893099407A9034800F08BFF0DB006
:10043800BDE8F08F0038024000100240000802407A
:10044800000C0240000402400000111000000240AD
:1004580010B582B00E4B1B8802AC24F8043D002274
:100468004FF480710B4801F05CF8642302222146A6
:10047800094801F05BFC002300E00133312BFCDD6F
:1004880001224FF48071034801F04BF802B010BD0F
:10049800781F0008000402402400002010B582B034
:1004A8000E4B9B8802AC24F8043D00224FF4807167
:1004B8000B4801F036F8642302222146094801F06E
:1004C80035FC002300E00133312BFCDD01224FF421
:1004D8008071034801F025F802B010BD781F0008AC
:1004E800000402402400002010B582B009238DF8D2
:1004F800043000248DF8054022464FF480710B48E3
:1005080001F00FF86423022201A9094801F00EFC4A
:10051800224600E00132312AFCDD01224FF48071CD
:10052800024800F0FEFF02B010BD00BF0004024008
:100538002400002010B582B00E4B1B8902AC24F8B1
:10054800043D00224FF480710B4800F0EAFF642359
:1005580002222146094801F0E9FB002300E00133AB
:10056800312BFCDD01224FF48071034800F0D9FFE4
:1005780002B010BD781F00080004024024000020CB
:1005880008B5FFF7D7FFFFF763FFFFF787FFFFF710
:10059800ABFF08BD00B583B08DF804008DF80510D9
:1005A80000224FF480710B4800F0BBFF6423022245
:1005B80001A9094801F0BAFB002300E00133312BFF
:1005C800FCDD01224FF48071024800F0AAFF03B05D
:1005D8005DF804FB000402402400002038B50546FD
:1005E800002405E0601C295DC0B2FFF7D3FF013489
:1005F800072CF7DD38BD30B482B0002402E00025B6
:1006080005550134072CFADD0024ADF80440B3F198
:10061800FF3F0AD0012B15D00B68012B26D0022BE7
:100628002BD0E3B102B030BC7047136803EB43032F
:1006380001229A408DF80420022202FA03F38DF871
:100648000530E9E7136803EB430302229A408DF86B
:100658000420012202FA03F38DF80530DCE79DF847
:10066800043003709DF805304370DBE79DF80430D3
:10067800C3709DF805300371D4E79DF80430837189
:100688009DF80530C371CDE710B483B00C46002344
:100698000093019307E0C25CE15C0A4402A9194493
:1006A80001F8082C0133072BF5DD6B4603CB2060DE
:1006B800616003B05DF8044B704710B582B0002349
:1006C8000093019307E0C25CCC5C224402AC1C445A
:1006D80004F8082C0133072BF5DD6846FFF77EFF89
:1006E80002B010BD38B50C461546194664381128B5
:1006F80023D8DFE800F01022222222222222182208
:10070800222222221D222209049B1B68ABB1013B35
:10071800049A136011E0049B1B68022B0DD001336F
:10072800049A136009E00B683BB1013B0B6004E0DD
:100738000B68022B01D001330B60059B049A2046FD
:10074800FFF759FF29462046FFF7B7FF38BD0000DD
:1007580010B598B0044660221649684601F0E8FBD7
:10076800002300E00133072B21DC03EB43018A005F
:1007780018A90A4452F8602C54F82220002AF1D013
:1007880003EB4300810018A8014451F85C1C54F89D
:1007980021108A42E6D103EB4300810018A80144E6
:1007A80051F8581C54F821008242DBD100E00020A7
:1007B80018B010BD841F0008FEE7000008B51048F7
:1007C800104B03604FF4827343604FF4004383601F
:1007D8000023C360036143614FF4007282612822E1
:1007E800C2610362436283620A23C36201F05DFA55
:1007F80000B908BD40F25B210348FFF7DDFF00BFE9
:1008080024000020003800400C20000800B585B006
:100818001548164B036000234360836003618361BE
:1008280043620363124AC262C36001220262C36167
:10083800426100F087FB60B9012300930193002314
:1008480002936946084800F043FC38B905B05DF8E2
:1008580004FB4FF405710748FFF7AEFF40F21E2175
:100868000448FFF7A9FF00BFC40000200020014092
:100878000100000F0C20000800B585B01548164B84
:100888000360002343608360036183614362036301
:10089800124AC262C36001220262C361426100F06F
:1008A80051FB68B9022300930123019300230293AB
:1008B8006946084800F00CFC38B905B05DF804FB3F
:1008C80040F239210648FFF777FF40F243210448F8
:1008D800FFF772FF7C000020002101400100000F9B
:1008E8000C20000800B595B02A4B1A6C42F08052D3
:1008F8001A641B6C03F080530193019B264B1A6802
:1009080042F480421A601B6803F480430293029BFE
:100918000223089301220B9210220C920E930022BC
:100928000F920822109250221192129307231393C8
:1009380008A800F0FDFD10BB0F23039302230493C6
:10094800B02305934FF4805306930793002103A81F
:1009580000F0B4FFC0B901F01FF9104BA3FB003041
:10096800800900F0C3FC042000F0D6FC00221146E8
:100978004FF0FF3000F086FC15B05DF804FB40F244
:10098800E1110748FFF718FF40F2EF110448FFF79D
:1009980013FF00BF0038024000700040D34D6210C2
:1009A8000C2000082DE9F04194B000F0F7F9FFF7AA
:1009B80099FFFFF72FFCFFF701FFFFF727FFFFF76E
:1009C8005BFFFFF7DDFD242200210BA801F0BBFA35
:1009D80009AD724B93E8030085E8030000240794EF
:1009E8000894069414AA42F83C4D4FF0FF3306A928
:1009F80007A8FFF700FE294607A8FFF75EFE4FF09D
:100A0800FF354DE0019505AB009306AB09AA07A990
:100A18006420FFF767FEAF2000F0E8F975E0019564
:100A280005AB009306AB09AA07A97520FFF75AFE84
:100A3800AF2000F0DBF96CE0019505AB009306AB45
:100A480009AA07A96C20FFF74DFEAF2000F0CEF9E8
:100A580063E0019505AB009306AB09AA07A97220CC
:100A6800FFF740FEAF2000F0C1F95AE04FF496704E
:100A780000F0BCF90BA8FFF76BFE002800F0888097
:100A8800B0F1FF3F79D003AB454A92E8030083E811
:100A9800030009AA82E80300012409A8FFF79EFDC4
:100AA800002CFAD1DFF81081404600F067FA0121E6
:100AB800404600F0CFFA404600F007FB394FA7FB4D
:100AC80000304009384E3060404600F0B9FA012045
:100AD80000F08CF9DFF8E480404600F04FFA01217D
:100AE800404600F0B7FA404600F0EFFAA7FB0030A6
:100AF80040092E4B1860404600F0A2FA012000F091
:100B080075F93368072B3FF67DAF274B1B68002B21
:100B180085D0264B1B68002B8ED0244B1B68072BD7
:100B280097D80821224800F0F5FC0028A2D0059BA0
:100B380003EB4303069A134414AA02EB830353F806
:100B4800243C002B92D109A907A8FFF79DFD059B1E
:100B580003EB4303069A134414AA02EB830343F8F6
:100B6800245C6D422B4605AA06A907A8FFF743FD9A
:100B780009A907A8FFF7A1FD78E703AB0D4A92E89A
:100B8800030083E8030009AA82E80300012484E73C
:100B980009A907A8FFF791FD82E700BFE41F000835
:100BA800F41F0008D34D6210C00000200801002087
:100BB80000000240EC1F0008C40000207C00002058
:100BC80000B583B0214B5A6C42F480425A645A6C87
:100BD80002F480420092009A1A6C42F080521A6421
:100BE8001B6C03F080530193019B072000F038FB36
:100BF800002211466FF00B0000F044FB0022114662
:100C08006FF00A0000F03EFB002211466FF0090069
:100C180000F038FB002211466FF0040000F032FBB0
:100C2800002211466FF0030000F02CFB0022114651
:100C38006FF0010000F026FB002211464FF0FF3054
:100C480000F020FB03B05DF804FB00BF0038024051
:100C580000B589B00368194A934205D0184A9342EF
:100C680017D009B05DF804FB164B5A6C42F4807239
:100C78005A645B6C03F480730193019B0223039312
:100C8800032304930023059303A90F4800F05AFB9C
:100C9800E7E70C4B5A6C42F400725A645B6C03F43D
:100CA80000730293029B04230393032304930023FA
:100CB800059303A9044800F045FBD2E70020014052
:100CC8000021014000380240000002400268114B38
:100CD8009A4200D0704700B587B003F500331A6C0C
:100CE80042F480421A641B6C03F480430093009B17
:100CF8004FF4204301930223029301230393032318
:100D080004930523059301A9034800F01BFB07B0D2
:100D18005DF804FB003800400004024008B500F00C
:100D280057F800F00AFB08BD0F49D1F8883043F4A2
:100D38007003C1F888300D4B1A6842F001021A603E
:100D4800002098601A6822F0847222F480321A60B7
:100D5800074A5A601A6822F480221A60D8604FF055
:100D680000638B60704700BF00ED00E00038024070
:100D78001030002410B5044600F00EFF064BA3FB0C
:100D88000030800900F0B2FA002221464FF0FF300F
:100D980000F078FA002010BDD34D621008B50B4B57
:100DA8001A6842F400721A601A6842F480621A6083
:100DB8001A6842F480721A60032000F051FA002089
:100DC800FFF7D8FFFFF7FCFE002008BD003C0240FB
:100DD800024A136801331360704700BF20000020E7
:100DE800014B1868704700BF2000002010B582B082
:100DF8000190FFF7F5FF0446FFF7F2FF001B019B88
:100E08009842F9D302B010BD4C4B5A6822F44032D4
:100E18005A605A6841680A435A600268536823F462
:100E28008073536002685368016943EA0123536081
:100E38000268536823F040735360026853688168FE
:100E48000B4353600268936823F40063936002685D
:100E58009368C1680B439360C26A394B9A4249D080
:100E68000268936823F07063936002689368C16AAC
:100E78000B4393600268936823F0405393600268C1
:100E88009368016B0B4393600268936823F0020335
:100E9800936002689368816943EA41039360436AF7
:100EA800002B32D10268536823F400635360026850
:100EB800D36A23F47003D3620168CB6A026A013AE9
:100EC80043EA0253CB620268936823F40073936089
:100ED80002689368C16943EA412393600268936892
:100EE80023F48063936002689368416943EA81232D
:100EF800936070470268936823F070639360026898
:100F0800936823F040539360BEE70268536843F444
:100F1800006353600268536823F460435360836A34
:100F2800013B4FF4604292FAA2F2B2FA82F2934085
:100F380001684A6813434B60B9E700BF00230140CA
:100F48000100000FB8B110B5044690F83D306BB100
:100F5800022384F83D302046FFF756FF0020206426
:100F6800012384F83D3084F83C0010BD80F83C3003
:100F7800FFF76EFEECE701207047000082B0002307
:100F8800019390F83C30012B4BD0012380F83C3082
:100F980090F83D30DBB2222B15D0122380F83D307B
:100FA80003689A6812F0010F17D19A6842F001029B
:100FB8009A601F4B1B681F4AA2FB03239B0C03EB81
:100FC8004303019306E0322380F83D30E8E7019BB4
:100FD800013B0193019B002BF9D1002380F83C30A1
:100FE800154B5B6813F01F0F0AD103689A6812F05B
:100FF800405F18D19A6842F080429A60002004E06D
:1010080003680E4A934202D0002002B070479A68E3
:1010180012F0405F09D19A6842F080429A6000203D
:10102800F3E70220F1E70020EFE70020EDE700BF3B
:101038000000002083DE1B43002301400020014004
:101048000268936823F001039360012380F83D3020
:101058000020704703689A6812F4806F03D09B6879
:1010680013F4807F1AD170B50D460446FFF7B8FE19
:10107800064623681B6813F0020F17D1B5F1FF3F2E
:10108800F7D025B1FFF7ACFE801BA842F1D90320A9
:1010980084F83D00002384F83C3010E0042380F8F5
:1010A8003D30002380F83C300120704794F83D30F3
:1010B800DBB2252B04D0152384F83D30002070BD09
:1010C800352384F83D300020F9E70368D86C704771
:1010D80030B482B00023019390F83C30012B00F02B
:1010E800B780012380F83C300B68092B3ED905688E
:1010F800EA689BB203EB43031E3B072404FA03F39D
:1011080022EA0303EB600568EA688C680B8803EB46
:1011180043031E3B04FA03F31343EB604B68062BAF
:101128003AD805686A6B03EB8303053B1F2404FA6E
:1011380003F322EA03036B6305686A6B4B6803EBEE
:101148008303053B0C8804FA03F313436B630268BB
:10115800404B9A4250D002683E4B9A4255D00023E9
:1011680080F83C30184602B030BC704705682A69E0
:101178009BB203EB4303072404FA03F322EA0303B5
:101188002B6105682A698C680B8803EB430304FA12
:1011980003F313432B61C1E70C2B16D805682A6BA0
:1011A80003EB8303233B1F2404FA03F322EA03031C
:1011B8002B6305682A6B4B6803EB8303233B0C887E
:1011C80004FA03F313432B63C1E70568EA6A03EBE8
:1011D8008303413B1F2404FA03F322EA0303EB626F
:1011E8000568EA6A4B6803EB8303413B0C8804FA01
:1011F80003F31343EB62AAE70B68122BABD1164A31
:10120800536843F480035360A5E70B68103B012B38
:10121800A5D8114A536843F4000353600B68102B98
:101228009DD10E4B1B6802F1467202F52E3202F276
:101238008332A2FB03239B0C03EB83035A00019226
:1012480002E0019B013B0193019B002BF9D186E74A
:10125800022088E700200140002301400000002010
:10126800074AD36823F4E0631B041B0C000200F454
:10127800E060184340F0BF6040F40030D060704731
:1012880000ED00E030B4174BDB68C3F30223C3F171
:101298000704042C28BF04241D1D062D18D9033B60
:1012A8004FF0FF3505FA04F421EA0401994005FAE4
:1012B80003F322EA0303194300280BDB0901C9B22F
:1012C80000F1604000F5614080F8001330BC7047C1
:1012D8000023E5E700F00F000901C9B2024B1954D9
:1012E800F4E700BF00ED00E014ED00E00138B0F1D4
:1012F800807F0AD2064B5860064AF02182F82310F4
:101308000020986007221A6070470120704700BFCC
:1013180010E000E000ED00E0042805D0054A13685D
:1013280023F0040313607047024A136843F0040370
:101338001360704710E000E0704708B5FFF7FCFF46
:1013480008BD000000230F2B00F2DB80F0B482B050
:1013580039E0082200E00022B2403A430234694EE4
:1013680046F82420684A1468EA4302EA04064F68EB
:1013780017F4803F01D045EA0406634C2660646890
:1013880002EA04064F6817F4003F01D045EA040654
:101398005D4C6660A46802EA04064F6817F4801F73
:1013A80001D045EA0406584CA660E46822404E681D
:1013B80016F4001F01D045EA0402534CE2600133E1
:1013C8000F2B00F29B8001229A400C6804EA020568
:1013D800AA42F4D14C68022C01D0122C10D1DE089C
:1013E800083650F826C003F00704A7000F24BC40B5
:1013F8002CEA040C0C69BC4044EA0C0440F8264072
:1014080004685F000326BE40F64306EA040C4C68F5
:1014180004F00304BC4044EA0C0404604C6804F182
:10142800FF3CBCF1010F03D9112C01D0122C10D1B3
:10143800846806EA040CCC68BC4044EA0C04846066
:10144800446824EA02024C68C4F300149C40144324
:101458004460C26816408A68BA403243C2604A682B
:1014680012F0805FABD0294A546C44F48044546431
:10147800526C02F480420192019A9C08A61C214AEF
:1014880052F8267003F0030296000F22B24027EAB2
:1014980002071F4A90423FF45EAF02F58062904215
:1014A8001ED002F5806290421CD002F58062904204
:1014B8001AD002F58062904218D002F580629042FC
:1014C80016D002F58062904214D002F580629042F4
:1014D80012D002F5806290423FF43BAF09223BE70D
:1014E800012239E7022237E7032235E7042233E7EE
:1014F800052231E706222FE707222DE702B0F0BCCC
:101508007047704700380140003C014000380240F5
:10151800000002400369194201D1002070470120F0
:10152800704712B9090481617047816170470000F2
:1015380030B583B00446036813F0010F19D0AC4BE3
:101548009B6803F00C03042B0AD0A94B9B6803F09B
:101558000C03082B32D1A64B5B6813F4800F2DD0F7
:10156800A34B1B6813F4003F03D06368002B00F003
:101578009981236813F0020F72D09D4B9B6813F07A
:101588000C0F55D09A4B9B6803F00C03082B4AD0DC
:10159800E368002B00F08B80964B01221A60FFF75E
:1015A8001FFC0546924B1B6813F0020F70D1FFF722
:1015B80017FC401B6428F5D9032076E18E4B0022E6
:1015C8001A70FFF70DFC0546894B1B6813F4003FA2
:1015D80006D0FFF705FC401B6428F5D9032064E119
:1015E8002279854B1A70636873B1FFF7F9FB0546DA
:1015F8007F4B1B6813F4003FBBD1FFF7F1FB401B87
:101608006428F5D9032050E1FFF7EAFB0546784B3B
:101618001B6813F4003FACD0FFF7E2FB401B6428C3
:10162800F5D9032041E1724B5B6813F4800FAFD109
:101638006F4B1B6813F0020F04D0E368012B01D035
:10164800012032E16A48036823F0F8032169F8228F
:1016580092FAA2F2B2FA82F201FA02F2134303609A
:10166800236813F0080F46D0636993B3634B0122D4
:101678001A60FFF7B5FB05465D4B5B6F13F0020F71
:1016880039D1FFF7ADFB401B6428F5D903200CE1E5
:101698005748036823F0F8032169F82292FAA2F266
:1016A800B2FA82F201FA02F213430360D8E7514B0F
:1016B80000221A60FFF794FB05464D4B1B6813F098
:1016C800020FCDD0FFF78CFB401B6428F5D903200F
:1016D800EBE04A4B00221A60FFF782FB0546444BB9
:1016E8005B6F13F0020F06D0FFF77AFB401B6428EC
:1016F800F5D90320D9E0236813F0040F1FD1A3699B
:10170800002B00F0D1803A4A926802F00C02082AB5
:1017180000F0CD80022B79D0394B00221A60FFF7F8
:101728005FFB0446324B1B6813F0007F00F0B88063
:10173800FFF756FB001B6428F4D90320B5E02C4BB7
:101748001A6C42F080521A641B6C03F080530193A8
:10175800019B2C4A136843F480731360FFF740FB26
:101768000546284B1B6813F4807F06D1FFF738FB2A
:10177800401B6428F5D9032097E0234B00221A70F8
:10178800FFF72EFB05461A4B1B6F13F0020F08D00C
:10179800FFF726FB401B41F288339842F3D9032018
:1017A80083E0227A184B1A70A36883B1FFF718FBFD
:1017B80005460F4B1B6F13F0020FA0D1FFF710FB6C
:1017C800401B41F288339842F3D903206DE0FFF7BC
:1017D80007FB0546064B1B6F13F0020F8FD0FFF770
:1017E800FFFA401B41F288339842F3D903205CE0AA
:1017F800003802400000474202380240800E47424B
:10180800600047420070004070380240294B0022B7
:101818001A60FFF7E5FA0546274B1B6813F0007FAF
:1018280006D0FFF7DDFA401B6428F5D903203CE019
:10183800E369226A1343616A47F6C07292FAA2F218
:10184800B2FA82F201FA02F21343A26A5208013A8A
:101858004FF4403191FAA1F1B1FA81F18A40134372
:10186800E16A4FF0706292FAA2F2B2FA82F201FAD9
:1018780002F21343104A53600E4B01221A60FFF71D
:10188800AFFA04460C4B1B6813F0007F06D1FFF734
:10189800A7FA001B6428F5D9032006E0002004E01D
:1018A800002002E0012000E0002003B030BD01204C
:1018B800FBE700BF600047420038024070B50446AD
:1018C8000D468E4B1B6803F00F038B427DD2CAB2C4
:1018D8008A4B1A701B6803F00F038B4201D001205A
:1018E80070BD036813F0020F06D0854A936823F091
:1018F800F00381680B439360236813F0010F00F035
:10190800DD806368012B27D09A1E012A2BD97C4AD7
:10191800126812F0020F00F0ED8079498A6822F00F
:10192800030213438B60FFF75BFA05466368012BDC
:1019380020D0022B2ED0032B3CD0714B9B6813F088
:101948000C0F00F0BB80FFF74BFA401B41F28833C5
:101958009842F2D90320C3E7694A126812F4003F9B
:10196800DBD10120BCE7664A126812F0007FD4D1AF
:101978000120B5E7624B9B6803F00C03042B00F0D1
:101988009D80FFF72DFA401B41F288339842F1D928
:101998000320A5E75A4B9B6803F00C03082B00F0C3
:1019A8008D80FFF71DFA401B41F288339842F1D928
:1019B800032095E7524B9B68FFF712FA401B41F250
:1019C80088339842F6D903208AE7036813F0020F98
:1019D80006D04B4A936823F0F00381680B43936069
:1019E800236813F0010F5FD06368012B25D09A1E7E
:1019F800012A29D9424A126812F0020F7CD04049C4
:101A08008A6822F0030213438B60FFF7E9F9064660
:101A18006368012B1FD0022B2CD0032B39D0384BF5
:101A28009B6813F00C0F3FD0FFF7DAF9801B41F2E7
:101A380088339842F3D9032052E7314A126812F4E6
:101A4800003FDCD101204BE72D4A126812F0007FDD
:101A5800D5D1012044E72A4B9B6803F00C03042BE3
:101A680022D0FFF7BDF9801B41F288339842F2D9A2
:101A7800032035E7224B9B6803F00C03082B13D097
:101A8800FFF7AEF9801B41F288339842F2D9032060
:101A980026E71B4B9B68FFF7A3F9801B41F28833AD
:101AA8009842F6D903201BE7EAB2144B1A701B6858
:101AB80003F00F03AB4201D0012011E7236813F0B4
:101AC800040F06D00E4A936823F4E053E1680B43F1
:101AD8009360236813F0080F07D0094A936823F42A
:101AE8006043216943EAC10393600020FFF742F98C
:101AF8000020F5E60120F3E60120F1E6003C024073
:101B080000380240214B9B6803F00C03042B3AD0A9
:101B1800082B01D01E4870471C4B586800F03F0046
:101B28005B6813F4800F1ED01A4AB2FBF0F2174B11
:101B3800586847F6C073184093FAA3F3B3FA83F3CF
:101B4800D84000FB02F0114B5B6803F440334FF4BC
:101B5800403292FAA2F2B2FA82F2D34001335B0029
:101B6800B0FBF3F070470A4AB2FBF0F2074B586833
:101B780047F6C073184093FAA3F3B3FA83F3D84037
:101B880000FB02F0DFE70348704700BF003802405F
:101B98000024F40000127A0008B5FFF7B3FF084BE1
:101BA8009B6803F0F003F02292FAA2F2B2FA82F2F2
:101BB800D340044AD35CD840034B186008BD00BF2B
:101BC80000380240FC1F0008000000202DE9F04109
:101BD80005460E4690461C46FFF702F90746B8F13F
:101BE800000F2ED02B689B6836EA03035BD1B4F153
:101BF800FF3FF7D024B1FFF7F3F8C01BA042F1D99B
:101C08002A68536823F0E00353602A68136823F0B6
:101C180040031360AB6AB3F5005F39D0012385F840
:101C28005130002385F8503003202FE02A681368CC
:101C380023F4005313602A68136843F400531360B5
:101C48001BE02B689B6836EA03031ED0B4F1FF3F04
:101C5800F7D024B1FFF7C4F8C01BA042F1D92A6815
:101C6800536823F0E00353602A68136823F04003A5
:101C78001360AB6AB3F5005FD8D0012385F8513003
:101C8800002385F85030032000E00020BDE8F081F3
:101C98002A68136823F4005313602A68136843F40E
:101CA80000531360BAE70020F0E700283CD010B5D5
:101CB800044690F85130002B31D0022384F851307B
:101CC8002268136823F0400313606368A268134313
:101CD800E26813432269134362691343A26902F459
:101CE80000721343E2691343226A1343A16A22680C
:101CF8000B431360638B03F00403616A22680B4390
:101D080053602368E26A1A612268D36923F4006386
:101D1800D36100206065012384F8513010BD80F83C
:101D28005030FEF7D3FFC8E70120704730B583B0C5
:101D380090F85140E4B2012C40F0C780002900F02F
:101D4800C880002A00F0C78090F85040012C00F0AD
:101D5800C480012480F85040122480F851400024A7
:101D6800446501638286C286C46484648487C487A8
:101D7800826AB2F5005F34D08268B2F5004F3BD07A
:101D88000268116811F0400F03D1116841F0400159
:101D980011601D460446C368002B5DD1436813B12A
:101DA800C38E012B08D1236B5A1C226322681B782F
:101DB800D360E38E013BE386E38E1BB32B46002200
:101DC80002212046FFF702FF002840F08880236B9D
:101DD8005A1C226322681B78D360E38E013BE3869A
:101DE800EAE701680A6822F400520A6001680A6892
:101DF80042F400520A60BFE701680A6842F4804270
:101E08000A60BDE7A36AB3F5005F1FD02B46002226
:101E180002212046FFF7DAFE00284AD12B4601228C
:101E280080212046FFF7D2FE0346002847D1A2684A
:101E38002AB92268D168019192680192019A012217
:101E480084F85120002284F850203FE0226813686B
:101E580043F480531360D9E7436813B1C38E012B51
:101E680009D1226B23681288DA60236B023323635B
:101E7800E38E013BE386E38E8BB12B4600220221E1
:101E88002046FFF7A3FE60BB226B23681288DA6046
:101E9800236B02332363E38E013BE386EBE7A36AFC
:101EA800B3F5005FB2D12268136843F4805313601E
:101EB800ACE7636D43F020036365032306E0636DBD
:101EC80043F020036365032300E00223184603B0B0
:101ED80030BD0123FAE70123F8E70223F6E70323DD
:101EE800F4E70323F2E7000070B50D4E0D4CA41B78
:101EF800A4100025A54209D10B4E0C4C00F02CF87B
:101F0800A41BA4100025A54205D170BD56F82530A4
:101F180098470135EEE756F8253098470135F2E73E
:101F28007C2000087C2000087C2000088020000815
:101F380010B5431E0A44914200D110BD11F8014B5F
:101F480003F8014FF7E702440346934200D1704774
:101F580003F8011BF9E70000F8B500BFF8BC08BC9E
:101F68009E467047F8B500BFF8BC08BC9E4670474F
:101F78000B070000050F00000C0100000000000026
:101F8800010000000200000003000000040000003F
:101F9800050000000600000007000000080000001F
:101FA800000000000300000006000000010000001F
:101FB8000400000007000000020000000500000007
:101FC80008000000000000000400000008000000F5
:101FD8000200000004000000060000002424FF2482
:101FE80024FF2424000606000060600000606000F2
:101FF80000060600000000000102030401020304B9
:1020080006070809433A2F55736572732F6C6F647E
:1020180065722F446F63756D656E74732F7265708A
:102028006F732F546963546163546F65456D6265BE
:10203800646465642F5454542F545454456D626538
:102048006464656453797374656D732F5454544391
:102058006C65616E47656E65726174696F6E2F504D
:10206800524F4A4543542F5372632F6D61696E2E48
:042078006300000001
:04207C00AD010008AA
:0420800089010008CA
:042084000024F40040
:04000005080001C925
:00000001FF
