:020000040800F2
:1000000000000220C90100081902000819020008B6
:100010001902000819020008190200080000000077
:1000200000000000000000000000000019020008AD
:10003000190200080000000019020008190C00084D
:100040001902000819020008190200081902000824
:100050001902000819020008190200081902000814
:100060001902000819020008190200081902000804
:1000700019020008190200081902000819020008F4
:1000800019020008190200081902000819020008E4
:1000900019020008190200081902000819020008D4
:1000A00019020008190200081902000819020008C4
:1000B00019020008190200081902000819020008B4
:1000C00019020008190200081902000819020008A4
:1000D0001902000819020008190200081902000894
:1000E0001902000819020008190200081902000884
:1000F0001902000819020008190200081902000874
:100100001902000819020008190200081902000863
:100110001902000819020008190200081902000853
:100120001902000819020008190200081902000843
:100130001902000819020008190200081902000833
:100140001902000819020008190200081902000823
:100150001902000819020008190200081902000813
:100160001902000819020008190200081902000803
:100170001902000819020008190200080000000016
:08018000190200081902000831
:1001880010B5054C237833B9044B13B10448AFF3C9
:1001980000800123237010BD04000020000000002F
:1001A800081E000808B5034B1BB103490348AFF309
:1001B800008008BD0000000008000020081E00089C
:1001C800DFF834D0002103E00C4B5B584350043176
:1001D8000B480C4B42189A42F6D30B4A02E0002314
:1001E80042F8043B094B9A42F9D300F017FD01F09D
:1001F800E3FD00F0A1FB704700000220A81E0008E4
:100208000000002004000020040000200C01002051
:10021800FEE700002DE9F04F8DB0864B1A6B42F0D7
:1002280010021A631A6B02F010020192019A1A6BFB
:1002380042F004021A631A6B02F004020292029A54
:100248001A6B42F080021A631A6B02F08002039262
:10025800039A1A6B42F001021A631A6B02F0010248
:100268000492049A1A6B42F002021A631A6B02F0A3
:1002780002020592059A1A6B42F008021A631B6B78
:1002880003F008030693069B002208216A4801F040
:10029800B1F800220121694801F0ACF800224FF2C0
:1002A8001001674801F0A6F800224FF480716548F4
:1002B80001F0A0F80827079701260896002409945A
:1002C8000A9407A95C4800F0ADFF079608960994C0
:1002D8000A9407A9594800F0A5FF07970225089531
:1002E80009940A944FF00508CDF82C8007A95348C3
:1002F80000F098FF0796544B0893099407A95348B0
:1003080000F090FF07970894099407A94F4800F058
:1003180089FF10230793089509940A944FF0060B58
:10032800CDF82CB007A9494800F07CFF4FF0200A0F
:10033800CDF81CA00895099403270A97CDF82C80BE
:1003480007A9424800F06EFF4FF00409CDF81C9051
:100358000894099407A93B4800F064FF4FF48063B0
:100368000793089509940A94CDF82C8007A9354875
:1003780000F058FF4FF480430793089509940A94B6
:100388000B9707A92F4800F04DFF4FF21003079372
:10039800089609940A9407A9294800F043FF4FF4E6
:1003A800A4530793089509940A94CDF82CB007A98B
:1003B800224800F037FF4FF400730793089409941C
:1003C80007A9224800F02EFF4FF4E0530793089541
:1003D80009940A970A230B9307A91C4800F022FFE7
:1003E800CDF81CA00894099407A9154800F01AFF35
:1003F8004FF4107307931223089309960A97CDF8C0
:100408002C9007A90F4800F00DFF4FF48073079355
:10041800089609940A9407A90A4800F003FF07956B
:10042800094B0893099407A9034800F0FBFE0DB097
:10043800BDE8F08F0038024000100240000802407A
:10044800000C0240000402400000111000000240AD
:1004580010B582B00E4B1B8802AC24F8043D002274
:100468004FF480710B4800F0C5FF64230222214637
:10047800094801F0C3FB002300E00133312BFCDD08
:1004880001224FF48071034800F0B4FF02B010BDA0
:10049800201E0008000402402400002010B582B08D
:1004A8000E4B9B8802AC24F8043D00224FF4807167
:1004B8000B4800F09FFF642302222146094801F0FF
:1004C8009DFB002300E00133312BFCDD01224FF4BA
:1004D8008071034800F08EFF02B010BD201E000896
:1004E800000402402400002010B582B009238DF8D2
:1004F800043000248DF8054022464FF480710B48E3
:1005080000F078FF6423022201A9094801F076FB74
:10051800224600E00132312AFCDD01224FF48071CD
:10052800024800F067FF02B010BD00BF000402409F
:100538002400002010B582B00E4B1B8902AC24F8B1
:10054800043D00224FF480710B4800F053FF6423F0
:1005580002222146094801F051FB002300E0013343
:10056800312BFCDD01224FF48071034800F042FF7B
:1005780002B010BD201E0008000402402400002024
:1005880008B5FFF7D7FFFFF763FFFFF787FFFFF710
:10059800ABFF08BD00B583B08DF804008DF80510D9
:1005A80000224FF480710B4800F024FF64230222DC
:1005B80001A9094801F022FB002300E00133312B97
:1005C800FCDD01224FF48071024800F013FF03B0F4
:1005D8005DF804FB000402402400002038B50546FD
:1005E800002405E0601C295DC0B2FFF7D3FF013489
:1005F800072CF7DD38BD30B482B0002402E00025B6
:1006080005550134072CFADD0024ADF80440B3F198
:10061800FF3F0AD0012B15D00B68012B26D0022BE7
:100628002BD0E3B102B030BC7047136803EB43032F
:1006380001229A408DF80420022202FA03F38DF871
:100648000530E9E7136803EB430302229A408DF86B
:100658000420012202FA03F38DF80530DCE79DF847
:10066800043003709DF805304370DBE79DF80430D3
:10067800C3709DF805300371D4E79DF80430837189
:100688009DF80530C371CDE710B483B00C46002344
:100698000093019307E0C25CE15C0A4402A9194493
:1006A80001F8082C0133072BF5DD6B4603CB2060DE
:1006B800616003B05DF8044B704710B582B0002349
:1006C8000093019307E0C25CCC5C224402AC1C445A
:1006D80004F8082C0133072BF5DD6846FFF77EFF89
:1006E80002B010BD38B50C461546194664381128B5
:1006F80023D8DFE800F01022222222222222182208
:10070800222222221D222209049B1B68ABB1013B35
:10071800049A136011E0049B1B68022B0DD001336F
:10072800049A136009E00B683BB1013B0B6004E0DD
:100738000B68022B01D001330B60059B049A2046FD
:10074800FFF759FF29462046FFF7B7FF38BDFEE7F8
:1007580008B51048104B03604FF4827343604FF4A0
:10076800004383600023C360036143614FF4007258
:1007780082612822C2610362436283620A23C362E0
:1007880001F0FBF900B908BD40F20B210348FFF75F
:10079800DEFF00BF2400002000380040441E00088F
:1007A80000B585B01548164B03600023436083608D
:1007B8000361836143620363124AC262C360012218
:1007C8000262C361426100F037FB60B90123009304
:1007D8000193002302936946084800F0E9FB38B901
:1007E80005B05DF804FB4FF4E2710748FFF7AFFF6F
:1007F8004FF4E7710448FFF7AAFF00BFC0000020CC
:10080800002001400100000F441E000800B585B01B
:100818001548164B036000234360836003618361BE
:1008280043620363124AC262C36001220262C36167
:10083800426100F001FB68B9022300930123019390
:10084800002302936946084800F0B2FB38B905B0A6
:100858005DF804FB40F2E9110648FFF778FF40F223
:10086800F3110448FFF773FF7C00002000210140CA
:100878000100000F441E000800B595B02A4B1A6C01
:1008880042F080521A641B6C03F080530193019B61
:10089800264B1A6842F480421A601B6803F48043AE
:1008A8000293029B0223089301220B9210220C92BE
:1008B8000E9300220F920822109250221192129346
:1008C8000723139308A800F09BFD10BB0F23039385
:1008D80002230493B02305934FF4805306930793A0
:1008E800002103A800F052FFC0B901F0BDF8104B79
:1008F800A3FB0030800900F069FC042000F07CFCB8
:10090800002211464FF0FF3000F02CFC15B05DF8C6
:1009180004FB40F291110748FFF719FF40F29F11BD
:100928000448FFF714FF00BF003802400070004081
:10093800D34D6210441E0008F0B589B000F0A8F944
:10094800FFF79AFFFFF766FCFFF702FFFFF728FFA4
:10095800FFF75CFFFFF714FE06AC4F4B93E803006C
:1009680084E80300002604960596039608AD45F82A
:10097800186D4FF0FF332A4603A904A8FFF73BFE82
:10098800214604A8FFF799FE4FF47A7000F0A8F901
:100998004FF0FF370197009503AB224604A9722058
:1009A800FFF7A0FE4FF47A7000F09AF901970095CE
:1009B80003AB224604A97220FFF794FE4FF47A7025
:1009C80000F08EF90197009503AB224604A9642034
:1009D800FFF788FE214604A8FFF756FE4FF47A7009
:1009E80000F07EF90396029601232A4603A904A87B
:1009F800FFF701FE214604A8FFF75FFE4FF47A7067
:100A080000F06EF901260196009503AB224604A971
:100A18006420FFF767FE4FF47A7000F061F90196E1
:100A2800009503AB224604A97220FFF75BFE21461E
:100A380004A8FFF729FE4FF47A7000F051F9174C1B
:100A4800204600F015FA0121204600F073FA2046EE
:100A580000F0ABFA124BA3FB00304009114B1860B1
:100A6800012000F03DF9104C204600F001FA012168
:100A7800204600F05FFA204600F097FA0B4BA3FBE4
:100A8800003000090A4B1860012000F029F906A877
:100A9800FFF7A4FDD3E700BF2C1E0008C00000200C
:100AA800D34D6210040100207C0000201F85EB510B
:100AB8000801002000B583B0214B5A6C42F48042F3
:100AC8005A645A6C02F480420092009A1A6C42F0FE
:100AD80080521A641B6C03F080530193019B07201A
:100AE80000F02EFB002211466FF00B0000F03AFBDD
:100AF800002211466FF00A0000F034FB0022114674
:100B08006FF0090000F02EFB002211466FF0040080
:100B180000F028FB002211466FF0030000F022FBD2
:100B2800002211466FF0010000F01CFB0022114664
:100B38004FF0FF3000F016FB03B05DF804FB00BF78
:100B48000038024000B589B00368194A934205D0BD
:100B5800184A934217D009B05DF804FB164B5A6C3B
:100B680042F480725A645B6C03F480730193019BB6
:100B780002230393032304930023059303A90F4837
:100B880000F050FBE7E70C4B5A6C42F400725A64D1
:100B98005B6C03F400730293029B04230393032307
:100BA80004930023059303A9044800F03BFBD2E714
:100BB80000200140002101400038024000000240AE
:100BC8000268114B9A4200D0704700B587B003F510
:100BD80000331A6C42F480421A641B6C03F480439D
:100BE8000093009B4FF420430193022302930123B7
:100BF8000393032304930523059301A9034800F0F5
:100C080011FB07B05DF804FB003800400004024007
:100C180008B500F057F800F000FB08BD0F49D1F8FF
:100C2800883043F47003C1F888300D4B1A6842F0DD
:100C380001021A60002098601A6822F0847222F477
:100C480080321A60074A5A601A6822F480221A60B1
:100C5800D8604FF000638B60704700BF00ED00E084
:100C6800003802401030002410B5044600F0FCFEA5
:100C7800064BA3FB0030800900F0A8FA00222146A9
:100C88004FF0FF3000F06EFA002010BDD34D621017
:100C980008B50B4B1A6842F400721A601A6842F4DD
:100CA80080621A601A6842F480721A60032000F0A9
:100CB80047FA0020FFF7D8FFFFF7FCFE002008BD29
:100CC800003C0240024A136801331360704700BFBA
:100CD80020000020014B1868704700BF200000204A
:100CE80010B582B00190FFF7F5FF0446FFF7F2FF59
:100CF800001B019B9842F9D302B010BD4C4B5A68B7
:100D080022F440325A605A6841680A435A600268BD
:100D1800536823F48073536002685368016943EA97
:100D2800012353600268536823F0407353600268DC
:100D3800536881680B4353600268936823F4006327
:100D4800936002689368C1680B439360C26A394B29
:100D58009A4249D00268936823F0706393600268EE
:100D68009368C16A0B4393600268936823F0405309
:100D7800936002689368016B0B4393600268936801
:100D880023F00203936002689368816943EA410390
:100D98009360436A002B32D10268536823F40063DE
:100DA80053600268D36A23F47003D3620168CB6A84
:100DB800026A013A43EA0253CB620268936823F459
:100DC8000073936002689368C16943EA41239360A2
:100DD8000268936823F480639360026893684169AA
:100DE80043EA8123936070470268936823F0706335
:100DF80093600268936823F040539360BEE70268EB
:100E0800536843F4006353600268536823F46043F3
:100E18005360836A013B4FF4604292FAA2F2B2FA3D
:100E280082F2934001684A6813434B60B9E700BFF8
:100E3800002301400100000FB8B110B5044690F836
:100E48003D306BB1022384F83D302046FFF756FF52
:100E580000202064012384F83D3084F83C0010BD54
:100E680080F83C30FFF76EFEECE701207047000089
:100E780082B00023019390F83C30012B4BD0012322
:100E880080F83C3090F83D30DBB2222B15D012238D
:100E980080F83D3003689A6812F0010F17D19A68FC
:100EA80042F001029A601F4B1B681F4AA2FB0323F2
:100EB8009B0C03EB4303019306E0322380F83D309B
:100EC800E8E7019B013B0193019B002BF9D100232B
:100ED80080F83C30154B5B6813F01F0F0AD103688C
:100EE8009A6812F0405F18D19A6842F080429A607E
:100EF800002004E003680E4A934202D0002002B0AA
:100F080070479A6812F0405F09D19A6842F08042AF
:100F18009A600020F3E70220F1E70020EFE70020C5
:100F2800EDE700BF0000002083DE1B4300230140E3
:100F38000020014003689A6812F4806F03D09B6810
:100F480013F4807F1AD170B50D460446FFF7C2FE30
:100F5800064623681B6813F0020F17D1B5F1FF3F4F
:100F6800F7D025B1FFF7B6FE801BA842F1D90320C0
:100F780084F83D00002384F83C3010E0042380F816
:100F88003D30002380F83C300120704794F83D3014
:100F9800DBB2252B04D0152384F83D30002070BD2A
:100FA800352384F83D300020F9E70368D86C704792
:100FB80030B482B00023019390F83C30012B00F04C
:100FC800B780012380F83C300B68092B3ED90568AF
:100FD800EA689BB203EB43031E3B072404FA03F3BE
:100FE80022EA0303EB600568EA688C680B8803EB68
:100FF80043031E3B04FA03F31343EB604B68062BD1
:101008003AD805686A6B03EB8303053B1F2404FA8F
:1010180003F322EA03036B6305686A6B4B6803EB0F
:101028008303053B0C8804FA03F313436B630268DC
:10103800404B9A4250D002683E4B9A4255D000230A
:1010480080F83C30184602B030BC704705682A6901
:101058009BB203EB4303072404FA03F322EA0303D6
:101068002B6105682A698C680B8803EB430304FA33
:1010780003F313432B61C1E70C2B16D805682A6BC1
:1010880003EB8303233B1F2404FA03F322EA03033D
:101098002B6305682A6B4B6803EB8303233B0C889F
:1010A80004FA03F313432B63C1E70568EA6A03EB09
:1010B8008303413B1F2404FA03F322EA0303EB6290
:1010C8000568EA6A4B6803EB8303413B0C8804FA22
:1010D80003F31343EB62AAE70B68122BABD1164A52
:1010E800536843F480035360A5E70B68103B012B5A
:1010F800A5D8114A536843F4000353600B68102BBA
:101108009DD10E4B1B6802F1467202F52E3202F297
:101118008332A2FB03239B0C03EB83035A00019247
:1011280002E0019B013B0193019B002BF9D186E76B
:10113800022088E700200140002301400000002031
:10114800074AD36823F4E0631B041B0C000200F475
:10115800E060184340F0BF6040F40030D060704752
:1011680000ED00E030B4174BDB68C3F30223C3F192
:101178000704042C28BF04241D1D062D18D9033B81
:101188004FF0FF3505FA04F421EA0401994005FA05
:1011980003F322EA0303194300280BDB0901C9B250
:1011A80000F1604000F5614080F8001330BC7047E2
:1011B8000023E5E700F00F000901C9B2024B1954FA
:1011C800F4E700BF00ED00E014ED00E00138B0F1F5
:1011D800807F0AD2064B5860064AF02182F8231015
:1011E8000020986007221A6070470120704700BFEE
:1011F80010E000E000ED00E0042805D0054A13687F
:1012080023F0040313607047024A136843F0040391
:101218001360704710E000E0704708B5FFF7FCFF67
:1012280008BD000000230F2B00F2DB80F0B482B071
:1012380039E0082200E00022B2403A430234694E05
:1012480046F82420684A1468EA4302EA04064F680C
:1012580017F4803F01D045EA0406634C26606468B1
:1012680002EA04064F6817F4003F01D045EA040675
:101278005D4C6660A46802EA04064F6817F4801F94
:1012880001D045EA0406584CA660E46822404E683E
:1012980016F4001F01D045EA0402534CE260013302
:1012A8000F2B00F29B8001229A400C6804EA020589
:1012B800AA42F4D14C68022C01D0122C10D1DE08BD
:1012C800083650F826C003F00704A7000F24BC40D6
:1012D8002CEA040C0C69BC4044EA0C0440F8264093
:1012E80004685F000326BE40F64306EA040C4C6817
:1012F80004F00304BC4044EA0C0404604C6804F1A4
:10130800FF3CBCF1010F03D9112C01D0122C10D1D4
:10131800846806EA040CCC68BC4044EA0C04846087
:10132800446824EA02024C68C4F300149C40144345
:101338004460C26816408A68BA403243C2604A684C
:1013480012F0805FABD0294A546C44F48044546452
:10135800526C02F480420192019A9C08A61C214A10
:1013680052F8267003F0030296000F22B24027EAD3
:1013780002071F4A90423FF45EAF02F58062904236
:101388001ED002F5806290421CD002F58062904225
:101398001AD002F58062904218D002F5806290421D
:1013A80016D002F58062904214D002F58062904215
:1013B80012D002F5806290423FF43BAF09223BE72E
:1013C800012239E7022237E7032235E7042233E70F
:1013D800052231E706222FE707222DE702B0F0BCED
:1013E8007047704700380140003C01400038024017
:1013F8000000024012B90904816170478161704799
:1014080030B583B00446036813F0010F19D0AC4B14
:101418009B6803F00C03042B0AD0A94B9B6803F0CC
:101428000C03082B32D1A64B5B6813F4800F2DD028
:10143800A34B1B6813F4003F03D06368002B00F034
:101448009981236813F0020F72D09D4B9B6813F0AB
:101458000C0F55D09A4B9B6803F00C03082B4AD00D
:10146800E368002B00F08B80964B01221A60FFF78F
:1014780031FC0546924B1B6813F0020F70D1FFF741
:1014880029FC401B6428F5D9032076E18E4B002205
:101498001A70FFF71FFC0546894B1B6813F4003FC1
:1014A80006D0FFF717FC401B6428F5D9032064E138
:1014B8002279854B1A70636873B1FFF70BFC0546F8
:1014C8007F4B1B6813F4003FBBD1FFF703FC401BA5
:1014D8006428F5D9032050E1FFF7FCFB0546784B5B
:1014E8001B6813F4003FACD0FFF7F4FB401B6428E3
:1014F800F5D9032041E1724B5B6813F4800FAFD13B
:101508006F4B1B6813F0020F04D0E368012B01D066
:10151800012032E16A48036823F0F8032169F822C0
:1015280092FAA2F2B2FA82F201FA02F213430360CB
:10153800236813F0080F46D0636993B3634B012205
:101548001A60FFF7C7FB05465D4B5B6F13F0020F90
:1015580039D1FFF7BFFB401B6428F5D903200CE104
:101568005748036823F0F8032169F82292FAA2F297
:10157800B2FA82F201FA02F213430360D8E7514B40
:1015880000221A60FFF7A6FB05464D4B1B6813F0B7
:10159800020FCDD0FFF79EFB401B6428F5D903202E
:1015A800EBE04A4B00221A60FFF794FB0546444BD8
:1015B8005B6F13F0020F06D0FFF78CFB401B64280B
:1015C800F5D90320D9E0236813F0040F1FD1A369CC
:1015D800002B00F0D1803A4A926802F00C02082AE7
:1015E80000F0CD80022B79D0394B00221A60FFF72A
:1015F80071FB0446324B1B6813F0007F00F0B88083
:10160800FFF768FB001B6428F4D90320B5E02C4BD6
:101618001A6C42F080521A641B6C03F080530193D9
:10162800019B2C4A136843F480731360FFF752FB45
:101638000546284B1B6813F4807F06D1FFF74AFB49
:10164800401B6428F5D9032097E0234B00221A7029
:10165800FFF740FB05461A4B1B6F13F0020F08D02B
:10166800FFF738FB401B41F288339842F3D9032037
:1016780083E0227A184B1A70A36883B1FFF72AFB1C
:1016880005460F4B1B6F13F0020FA0D1FFF722FB8B
:10169800401B41F288339842F3D903206DE0FFF7ED
:1016A80019FB0546064B1B6F13F0020F8FD0FFF78F
:1016B80011FB401B41F288339842F3D903205CE0C8
:1016C800003802400000474202380240800E47427C
:1016D800600047420070004070380240294B0022E9
:1016E8001A60FFF7F7FA0546274B1B6813F0007FCF
:1016F80006D0FFF7EFFA401B6428F5D903203CE039
:10170800E369226A1343616A47F6C07292FAA2F249
:10171800B2FA82F201FA02F21343A26A5208013ABB
:101728004FF4403191FAA1F1B1FA81F18A401343A3
:10173800E16A4FF0706292FAA2F2B2FA82F201FA0A
:1017480002F21343104A53600E4B01221A60FFF74E
:10175800C1FA04460C4B1B6813F0007F06D1FFF753
:10176800B9FA001B6428F5D9032006E0002004E03C
:10177800002002E0012000E0002003B030BD01207D
:10178800FBE700BF600047420038024070B50446DE
:101798000D468E4B1B6803F00F038B427DD2CAB2F5
:1017A8008A4B1A701B6803F00F038B4201D001208B
:1017B80070BD036813F0020F06D0854A936823F0C2
:1017C800F00381680B439360236813F0010F00F066
:1017D800DD806368012B27D09A1E012A2BD97C4A09
:1017E800126812F0020F00F0ED8079498A6822F041
:1017F800030213438B60FFF76DFA05466368012BFC
:1018080020D0022B2ED0032B3CD0714B9B6813F0B9
:101818000C0F00F0BB80FFF75DFA401B41F28833E4
:101828009842F2D90320C3E7694A126812F4003FCC
:10183800DBD10120BCE7664A126812F0007FD4D1E0
:101848000120B5E7624B9B6803F00C03042B00F002
:101858009D80FFF73FFA401B41F288339842F1D947
:101868000320A5E75A4B9B6803F00C03082B00F0F4
:101878008D80FFF72FFA401B41F288339842F1D947
:10188800032095E7524B9B68FFF724FA401B41F26F
:1018980088339842F6D903208AE7036813F0020FC9
:1018A80006D04B4A936823F0F00381680B4393609A
:1018B800236813F0010F5FD06368012B25D09A1EAF
:1018C800012A29D9424A126812F0020F7CD04049F5
:1018D8008A6822F0030213438B60FFF7FBF9064680
:1018E8006368012B1FD0022B2CD0032B39D0384B27
:1018F8009B6813F00C0F3FD0FFF7ECF9801B41F207
:1019080088339842F3D9032052E7314A126812F417
:10191800003FDCD101204BE72D4A126812F0007F0E
:10192800D5D1012044E72A4B9B6803F00C03042B14
:1019380022D0FFF7CFF9801B41F288339842F2D9C1
:10194800032035E7224B9B6803F00C03082B13D0C8
:10195800FFF7C0F9801B41F288339842F2D903207F
:1019680026E71B4B9B68FFF7B5F9801B41F28833CC
:101978009842F6D903201BE7EAB2144B1A701B6889
:1019880003F00F03AB4201D0012011E7236813F0E5
:10199800040F06D00E4A936823F4E053E1680B4322
:1019A8009360236813F0080F07D0094A936823F45B
:1019B8006043216943EAC10393600020FFF754F9AB
:1019C8000020F5E60120F3E60120F1E6003C0240A4
:1019D80000380240214B9B6803F00C03042B3AD0DB
:1019E800082B01D01E4870471C4B586800F03F0078
:1019F8005B6813F4800F1ED01A4AB2FBF0F2174B43
:101A0800586847F6C073184093FAA3F3B3FA83F300
:101A1800D84000FB02F0114B5B6803F440334FF4ED
:101A2800403292FAA2F2B2FA82F2D34001335B005A
:101A3800B0FBF3F070470A4AB2FBF0F2074B586864
:101A480047F6C073184093FAA3F3B3FA83F3D84068
:101A580000FB02F0DFE70348704700BF0038024090
:101A68000024F40000127A0008B5FFF7B3FF084B12
:101A78009B6803F0F003F02292FAA2F2B2FA82F223
:101A8800D340044AD35CD840034B186008BD00BF5C
:101A980000380240341E0008000000202DE9F04103
:101AA80005460E4690461C46FFF714F90746B8F15E
:101AB800000F2ED02B689B6836EA03035BD1B4F184
:101AC800FF3FF7D024B1FFF705F9C01BA042F1D9B9
:101AD8002A68536823F0E00353602A68136823F0E8
:101AE80040031360AB6AB3F5005F39D0012385F872
:101AF8005130002385F8503003202FE02A681368FE
:101B080023F4005313602A68136843F400531360E6
:101B18001BE02B689B6836EA03031ED0B4F1FF3F35
:101B2800F7D024B1FFF7D6F8C01BA042F1D92A6834
:101B3800536823F0E00353602A68136823F04003D6
:101B48001360AB6AB3F5005FD8D0012385F8513034
:101B5800002385F85030032000E00020BDE8F08124
:101B68002A68136823F4005313602A68136843F43F
:101B780000531360BAE70020F0E700283CD010B506
:101B8800044690F85130002B31D0022384F85130AC
:101B98002268136823F0400313606368A268134344
:101BA800E26813432269134362691343A26902F48A
:101BB80000721343E2691343226A1343A16A22683D
:101BC8000B431360638B03F00403616A22680B43C1
:101BD80053602368E26A1A612268D36923F40063B8
:101BE800D36100206065012384F8513010BD80F86E
:101BF8005030FEF7E5FFC8E70120704730B583B0E5
:101C080090F85140E4B2012C40F0C780002900F060
:101C1800C880002A00F0C78090F85040012C00F0DE
:101C2800C480012480F85040122480F851400024D8
:101C3800446501638286C286C46484648487C487D9
:101C4800826AB2F5005F34D08268B2F5004F3BD0AB
:101C58000268116811F0400F03D1116841F040018A
:101C680011601D460446C368002B5DD1436813B15B
:101C7800C38E012B08D1236B5A1C226322681B7860
:101C8800D360E38E013BE386E38E1BB32B46002231
:101C980002212046FFF702FF002840F08880236BCE
:101CA8005A1C226322681B78D360E38E013BE386CB
:101CB800EAE701680A6822F400520A6001680A68C3
:101CC80042F400520A60BFE701680A6842F48042A1
:101CD8000A60BDE7A36AB3F5005F1FD02B46002258
:101CE80002212046FFF7DAFE00284AD12B460122BE
:101CF80080212046FFF7D2FE0346002847D1A2687C
:101D08002AB92268D168019192680192019A012248
:101D180084F85120002284F850203FE0226813689C
:101D280043F480531360D9E7436813B1C38E012B82
:101D380009D1226B23681288DA60236B023323638C
:101D4800E38E013BE386E38E8BB12B460022022112
:101D58002046FFF7A3FE60BB226B23681288DA6077
:101D6800236B02332363E38E013BE386EBE7A36A2D
:101D7800B3F5005FB2D12268136843F4805313604F
:101D8800ACE7636D43F020036365032306E0636DEE
:101D980043F020036365032300E00223184603B0E1
:101DA80030BD0123FAE70123F8E70223F6E703230E
:101DB800F4E70323F2E7000070B50D4E0D4CA41BA9
:101DC800A4100025A54209D10B4E0C4C00F018F8C0
:101DD800A41BA4100025A54205D170BD56F82530D6
:101DE80098470135EEE756F8253098470135F2E770
:101DF800A01E0008A01E0008A01E0008A41E0008BF
:101E0800F8B500BFF8BC08BC9E467047F8B500BFDF
:081E1800F8BC08BC9E467047AF
:101E20000B070000050F00000C0100002424FF2414
:101E300024FF242400000000010203040102030423
:101E400006070809443A2F446F63756D656E746F19
:101E5000732F5265706F7369746F72792F54696351
:101E6000546163546F652F545454456D62656464C6
:101E7000656453797374656D732F545454436C6562
:101E8000616E47656E65726174696F6E2F50524F57
:101E90004A4543542F5372632F6D61696E2E630060
:041EA000AD01000888
:041EA40089010008A8
:041EA8000024F4001E
:04000005080001C925
:00000001FF
